:020000040000FA
:04000000FEEFFFF020
:020000040001F9
:10FF380012001200120001EE01F10D0EEE6AE80641
:10FF4800FDE10001C3EFFFF0000ECE6E000E0401CC
:10FF5800006F000EC66E800EBE6E1200000E096E97
:10FF6800000E0A6E000E0B6E000E0C6E000E056E73
:10FF7800000E066E000E076E000E086E1200048E4C
:10FF88009CECFFF0B2ECFFF0A8ECFFF09EECFFF069
:10FF9800D4ECFFF09DECFFF0CCEFFFF0FEEFFFF0AC
:10FFA800000E126E800EBE161250BE12120E0E6E8B
:10FFB8005C0E0F6E040E106E000E116EE9EFFFF06E
:10FFC8000E06000E0F5A105A115A0E500F1010102C
:10FFD8001110D8A4F2EFFFF0F4EFFFF0E4EFFFF018
:10FFE800122A3F0E1264FBEFFFF0FDEFFFF0D6EF91
:08FFF800FFF012009FEFFFF083
:020000040020DA
:10000000FF0FFF0FFF0FFF0FFF0FFF0FFF0FFF0F80
:10001000FF0FFF0FFF0FFF0FFF0FFF0FFF0FFF0F70
:020000040030CA
:0A0000008CFEFFFC9FFFFFFFFFFFD7
:00000001FF
