:020000040000FA
:04000000FEEFFFF020
:020000040001F9
:10FEC20012001200010204081020900E03011A6FA2
:10FED200440E1B6F000E196F000E186F1200000EF9
:10FEE2000401006F000EC66E040EBE6EA00E00016D
:10FEF2007F6F000E7D6F120003011A9F161C186E91
:10FF0200171C196E610060F418F31950196FB19E35
:10FF12001A8F1200000E096E000E0A6E000E0B6E92
:10FF2200000E0C6E000E056E000E066E000E076EC1
:10FF3200000E086E1200C60EF66EFE0EF76E010E71
:10FF4200F86E01EE10F110EE06F00900F5C4EEF4C1
:10FF5200E550E150FAE101EE01F10F0EEE6AE8061A
:10FF6200FDE10001B5EFFFF0048E61ECFFF08BECD8
:10FF7200FFF070ECFFF066ECFFF0D3ECFFF062EC08
:10FF8200FFF0000E176E040E166E7DECFFF0B1AEA0
:10FF9200CDEFFFF0CFEFFFF0C8EFFFF0BEEFFFF0C5
:10FFA200FEEFFFF00D50D8A4D9EFFFF0DBEFFFF02A
:10FFB200DDEFFFF000017D2B0D04D8A4E3EFFFF08D
:10FFC200E5EFFFF0E7EFFFF000017D07F00E000123
:10FFD2007D19D8A4EFEFFFF0F1EFFFF0F3EFFFF0A0
:10FFE200010E0D6E7D51D8A4F9EFFFF0FBEFFFF08B
:0EFFF200FDEFFFF0000E0D6E12009CEFFFF011
:020000040020DA
:10000000FF0FFF0FFF0FFF0FFF0FFF0FFF0FFF0F80
:10001000FF0FFF0FFF0FFF0FFF0FFF0FFF0FFF0F70
:020000040030CA
:0A0000008CFEFFFC9FFFFFFFFFFFD7
:00000001FF
