:020000040000FA
:04000000FEEFFFF020
:020000040001F9
:10FF700012001200120001EE01F10D0EEE6AE80609
:10FF8000FDE10001EDEFFFF0000ECE6E000E04016A
:10FF9000006F000EC66E800EBE6E300EC76E120071
:10FFA000CF50300B300AD8A4D8EFFFF0DAEFFFF0D3
:10FFB000DBEFFFF0BE2A1200000E096E000E0A6E83
:10FFC000000E0B6E000E0C6E000E056E000E066E1F
:10FFD000000E076E000E086E1200048EB8ECFFF0E3
:10FFE000DCECFFF0C4ECFFF0BAECFFF0D0ECFFF07B
:10FFF000B9ECFFF0F6EFFFF0FEEFFFF0BBEFFFF024
:020000040020DA
:10000000FF0FFF0FFF0FFF0FFF0FFF0FFF0FFF0F80
:10001000FF0FFF0FFF0FFF0FFF0FFF0FFF0FFF0F70
:020000040030CA
:0A0000008CFEFFFC9FFFFFFFFFFFD7
:00000001FF
